{
  "contractName": "CheckingSystem",
  "abi": [
    {
      "constant": true,
      "inputs": [
        {
          "name": "",
          "type": "int256"
        }
      ],
      "name": "persons",
      "outputs": [
        {
          "name": "id",
          "type": "int256"
        },
        {
          "name": "name",
          "type": "string"
        }
      ],
      "payable": false,
      "stateMutability": "view",
      "type": "function"
    },
    {
      "constant": true,
      "inputs": [],
      "name": "personsCount",
      "outputs": [
        {
          "name": "",
          "type": "int256"
        }
      ],
      "payable": false,
      "stateMutability": "view",
      "type": "function"
    },
    {
      "inputs": [],
      "payable": false,
      "stateMutability": "nonpayable",
      "type": "constructor"
    }
  ],
  "bytecode": "0x6080604052600060015534801561001557600080fd5b506100636040805190810160405280600481526020017f416c6578000000000000000000000000000000000000000000000000000000008152506100b5640100000000026401000000009004565b6100b06040805190810160405280600381526020017f46657200000000000000000000000000000000000000000000000000000000008152506100b5640100000000026401000000009004565b6101c4565b6001600081548092919060010191905055506040805190810160405280600154815260200182815250600080600154815260200190815260200160002060008201518160000155602082015181600101908051906020019061011892919061011f565b5090505050565b828054600181600116156101000203166002900490600052602060002090601f016020900481019282601f1061016057805160ff191683800117855561018e565b8280016001018555821561018e579182015b8281111561018d578251825591602001919060010190610172565b5b50905061019b919061019f565b5090565b6101c191905b808211156101bd5760008160009055506001016101a5565b5090565b90565b610225806101d36000396000f3fe60806040526004361061004c576000357c0100000000000000000000000000000000000000000000000000000000900463ffffffff16806360bca93914610051578063871c442d1461010c575b600080fd5b34801561005d57600080fd5b5061008a6004803603602081101561007457600080fd5b8101908080359060200190929190505050610137565b6040518083815260200180602001828103825283818151815260200191508051906020019080838360005b838110156100d05780820151818401526020810190506100b5565b50505050905090810190601f1680156100fd5780820380516001836020036101000a031916815260200191505b50935050505060405180910390f35b34801561011857600080fd5b506101216101f3565b6040518082815260200191505060405180910390f35b6000602052806000526040600020600091509050806000015490806001018054600181600116156101000203166002900480601f0160208091040260200160405190810160405280929190818152602001828054600181600116156101000203166002900480156101e95780601f106101be576101008083540402835291602001916101e9565b820191906000526020600020905b8154815290600101906020018083116101cc57829003601f168201915b5050505050905082565b6001548156fea165627a7a72305820b49dadb0d3355cb3d49efef4fdc03ed1865142c93ff91c59b752e0986c8dc8d80029",
  "source": "pragma solidity >=0.4.21 <0.6.0;\n\ncontract CheckingSystem {\n\n\tstruct Persons {\n\t\tint id;\n\t\tstring name;\n\t}\n\n/*\tstruct Banks {\n\t\tint id;\n\t\tstring name;\n\t}\n\n\tstruct Accounts {\n\t\tint id;\n\t\tint bank_id;\n\t\tint owner_id;\n\t\tuint balance;\n\t}\n\n\tstruct Checks {\n\t\tint id;\n\t\tint bank_id;\n\t\tint owner_id;\n\t\tint account_id;\n\t\tuint amount;\n\t}\n*/\n\tmapping (int => Persons) public persons;\n/*\tmapping (int => Banks) public banks;\n\tmapping (int => Accounts) public accounts;\n\tmapping (int => Checks) public checks;\n\n*/\tint public personsCount = 0;\n/*\tint public banksCount = 0;\n\tint public accountsCount = 0;\n\tint public checksCount = 0;\n\n*/\tfunction addPerson (string memory _name) private {\n\t\tpersonsCount++;\n\t\tpersons[personsCount] = Persons( personsCount, _name);\n\t}\n\n/*\tfunction getPersonId(string storage _name) private {\n\t\tint id = -1;\n\t\tfor ( int p = 0; p < personsCount; ++p)\n\t\t{\n\t\t\tif (persons[p].name == _name)\n\t\t\t{\n\t\t\t\tid = persons[p].id;\n\t\t\t\tbreak;\n\t\t\t}\n\t\t}\n\t\treturn id;\n\t}\n\n\tfunction addBank (string memory _name) private {\n\t\tbanksCount++;\n\t\tbanks[banksCount] = Banks( banksCount, _name);\n\t}\n\n\tfunction addAccount (int _bank, int _owner) private {\n\t\taccountsCount++;\n\t\taccounts[accountsCount] = Accounts( accountsCount, _bank, _owner, 0);\n\t}\n\n\tfunction addCheck ( int _bank, int _owner,\n\t\t\t\t\t\tint _account, uint _amount) private {\n\t\tchecksCount++;\n\t\tchecks[checksCount] = Checks( checksCount, _bank, _owner, _account, _amount);\n\t}\n*/\n\tconstructor() public {\n\t\taddPerson(\"Alex\");\n\t\taddPerson(\"Fer\");\n/*\t\taddBank(\"Rio\");\n\t\taddAccount(0, 1);\n\t\taddCheck(0, 1, 0, 123);\n*/\t}\n}\n",
  "sourcePath": "/home/alex/Ethereum/election/contracts/Checks.sol",
  "compiler": {
    "name": "solc",
    "version": "0.5.0+commit.1d4f565a.Emscripten.clang"
  },
  "schemaVersion": "3.0.2",
  "updatedAt": "2019-03-19T01:58:06.283Z",
  "devdoc": {
    "methods": {}
  },
  "userdoc": {
    "methods": {}
  }
}