{
  "contractName": "Checking",
  "abi": [
    {
      "constant": true,
      "inputs": [
        {
          "name": "",
          "type": "int256"
        }
      ],
      "name": "checks",
      "outputs": [
        {
          "name": "id",
          "type": "int256"
        },
        {
          "name": "account_id",
          "type": "int256"
        },
        {
          "name": "amount",
          "type": "uint256"
        },
        {
          "name": "paid",
          "type": "bool"
        }
      ],
      "payable": false,
      "stateMutability": "view",
      "type": "function",
      "signature": "0x0af420b1"
    },
    {
      "constant": true,
      "inputs": [],
      "name": "accountsCount",
      "outputs": [
        {
          "name": "",
          "type": "int256"
        }
      ],
      "payable": false,
      "stateMutability": "view",
      "type": "function",
      "signature": "0x27538b30"
    },
    {
      "constant": true,
      "inputs": [
        {
          "name": "",
          "type": "int256"
        }
      ],
      "name": "persons",
      "outputs": [
        {
          "name": "id",
          "type": "int256"
        },
        {
          "name": "name",
          "type": "string"
        }
      ],
      "payable": false,
      "stateMutability": "view",
      "type": "function",
      "signature": "0x60bca939"
    },
    {
      "constant": true,
      "inputs": [],
      "name": "checksCount",
      "outputs": [
        {
          "name": "",
          "type": "int256"
        }
      ],
      "payable": false,
      "stateMutability": "view",
      "type": "function",
      "signature": "0x62232403"
    },
    {
      "constant": true,
      "inputs": [
        {
          "name": "",
          "type": "int256"
        }
      ],
      "name": "accounts",
      "outputs": [
        {
          "name": "id",
          "type": "int256"
        },
        {
          "name": "bank_id",
          "type": "int256"
        },
        {
          "name": "owner_id",
          "type": "int256"
        },
        {
          "name": "balance",
          "type": "uint256"
        }
      ],
      "payable": false,
      "stateMutability": "view",
      "type": "function",
      "signature": "0x6cef4e7f"
    },
    {
      "constant": true,
      "inputs": [],
      "name": "banksCount",
      "outputs": [
        {
          "name": "",
          "type": "int256"
        }
      ],
      "payable": false,
      "stateMutability": "view",
      "type": "function",
      "signature": "0x780e63de"
    },
    {
      "constant": true,
      "inputs": [],
      "name": "personsCount",
      "outputs": [
        {
          "name": "",
          "type": "int256"
        }
      ],
      "payable": false,
      "stateMutability": "view",
      "type": "function",
      "signature": "0x871c442d"
    },
    {
      "constant": true,
      "inputs": [
        {
          "name": "",
          "type": "int256"
        }
      ],
      "name": "banks",
      "outputs": [
        {
          "name": "id",
          "type": "int256"
        },
        {
          "name": "name",
          "type": "string"
        }
      ],
      "payable": false,
      "stateMutability": "view",
      "type": "function",
      "signature": "0xe44b2681"
    },
    {
      "inputs": [],
      "payable": false,
      "stateMutability": "nonpayable",
      "type": "constructor",
      "signature": "constructor"
    },
    {
      "constant": false,
      "inputs": [
        {
          "name": "_name",
          "type": "string"
        }
      ],
      "name": "addPerson",
      "outputs": [],
      "payable": false,
      "stateMutability": "nonpayable",
      "type": "function",
      "signature": "0x0bf2ee8d"
    },
    {
      "constant": false,
      "inputs": [
        {
          "name": "_name",
          "type": "string"
        }
      ],
      "name": "addBank",
      "outputs": [],
      "payable": false,
      "stateMutability": "nonpayable",
      "type": "function",
      "signature": "0x96ed5d86"
    },
    {
      "constant": false,
      "inputs": [
        {
          "name": "_bank",
          "type": "int256"
        },
        {
          "name": "_owner",
          "type": "int256"
        }
      ],
      "name": "addAccount",
      "outputs": [],
      "payable": false,
      "stateMutability": "nonpayable",
      "type": "function",
      "signature": "0x6cae5055"
    },
    {
      "constant": false,
      "inputs": [
        {
          "name": "_account",
          "type": "int256"
        },
        {
          "name": "_amount",
          "type": "uint256"
        }
      ],
      "name": "addCheck",
      "outputs": [],
      "payable": false,
      "stateMutability": "nonpayable",
      "type": "function",
      "signature": "0x4b2bb456"
    },
    {
      "constant": false,
      "inputs": [
        {
          "name": "_account",
          "type": "int256"
        },
        {
          "name": "_amount",
          "type": "uint256"
        }
      ],
      "name": "depositAccount",
      "outputs": [],
      "payable": false,
      "stateMutability": "nonpayable",
      "type": "function",
      "signature": "0xfc25543d"
    },
    {
      "constant": false,
      "inputs": [
        {
          "name": "_account",
          "type": "int256"
        },
        {
          "name": "_amount",
          "type": "uint256"
        }
      ],
      "name": "withdrawAccount",
      "outputs": [],
      "payable": false,
      "stateMutability": "nonpayable",
      "type": "function",
      "signature": "0x37b2b740"
    },
    {
      "constant": false,
      "inputs": [
        {
          "name": "_check",
          "type": "int256"
        },
        {
          "name": "_account",
          "type": "int256"
        }
      ],
      "name": "payCheck",
      "outputs": [],
      "payable": false,
      "stateMutability": "nonpayable",
      "type": "function",
      "signature": "0x50ae316f"
    }
  ],
  "bytecode": "0x608060405260006004556000600555600060065560006007553480156200002557600080fd5b50620000756040805190810160405280600481526020017f416c657800000000000000000000000000000000000000000000000000000000815250620001f9640100000000026401000000009004565b620000c46040805190810160405280600381526020017f4665720000000000000000000000000000000000000000000000000000000000815250620001f9640100000000026401000000009004565b620001136040805190810160405280600381526020017f52696f000000000000000000000000000000000000000000000000000000000081525062000265640100000000026401000000009004565b620001626040805190810160405280600481526020017f485342430000000000000000000000000000000000000000000000000000000081525062000265640100000000026401000000009004565b6200017e600180620002d2640100000000026401000000009004565b6200019c60016101f46200034d640100000000026401000000009004565b620001b8600280620002d2640100000000026401000000009004565b620001d5600160c862000375640100000000026401000000009004565b620001f3600261012c62000375640100000000026401000000009004565b620004b7565b600460008154809291906001019190505550604080519081016040528060045481526020018281525060008060045481526020019081526020016000206000820151816000015560208201518160010190805190602001906200025e92919062000408565b5090505050565b6005600081548092919060010191905055506040805190810160405280600554815260200182815250600160006005548152602001908152602001600020600082015181600001556020820151816001019080519060200190620002cb92919062000408565b5090505050565b60066000815480929190600101919050555060806040519081016040528060065481526020018381526020018281526020016000815250600260006006548152602001908152602001600020600082015181600001556020820151816001015560408201518160020155606082015181600301559050505050565b8060026000848152602001908152602001600020600301600082825401925050819055505050565b60076000815480929190600101919050555060806040519081016040528060075481526020018381526020018281526020016000151581525060036000600754815260200190815260200160002060008201518160000155602082015181600101556040820151816002015560608201518160030160006101000a81548160ff0219169083151502179055509050505050565b828054600181600116156101000203166002900490600052602060002090601f016020900481019282601f106200044b57805160ff19168380011785556200047c565b828001600101855582156200047c579182015b828111156200047b5782518255916020019190600101906200045e565b5b5090506200048b91906200048f565b5090565b620004b491905b80821115620004b057600081600090555060010162000496565b5090565b90565b610d0e80620004c76000396000f3fe6080604052600436106100db576000357c0100000000000000000000000000000000000000000000000000000000900463ffffffff1680630af420b1146100e05780630bf2ee8d1461014857806327538b301461021057806337b2b7401461023b5780634b2bb4561461028057806350ae316f146102c557806360bca9391461030a57806362232403146103c55780636cae5055146103f05780636cef4e7f14610435578063780e63de14610499578063871c442d146104c457806396ed5d86146104ef578063e44b2681146105b7578063fc25543d14610672575b600080fd5b3480156100ec57600080fd5b506101196004803603602081101561010357600080fd5b81019080803590602001909291905050506106b7565b604051808581526020018481526020018381526020018215151515815260200194505050505060405180910390f35b34801561015457600080fd5b5061020e6004803603602081101561016b57600080fd5b810190808035906020019064010000000081111561018857600080fd5b82018360208201111561019a57600080fd5b803590602001918460018302840111640100000000831117156101bc57600080fd5b91908080601f016020809104026020016040519081016040528093929190818152602001838380828437600081840152601f19601f8201169050808301925050505050505091929192905050506106f4565b005b34801561021c57600080fd5b5061022561075e565b6040518082815260200191505060405180910390f35b34801561024757600080fd5b5061027e6004803603604081101561025e57600080fd5b810190808035906020019092919080359060200190929190505050610764565b005b34801561028c57600080fd5b506102c3600480360360408110156102a357600080fd5b8101908080359060200190929190803590602001909291905050506107ac565b005b3480156102d157600080fd5b50610308600480360360408110156102e857600080fd5b81019080803590602001909291908035906020019092919050505061083f565b005b34801561031657600080fd5b506103436004803603602081101561032d57600080fd5b8101908080359060200190929190505050610975565b6040518083815260200180602001828103825283818151815260200191508051906020019080838360005b8381101561038957808201518184015260208101905061036e565b50505050905090810190601f1680156103b65780820380516001836020036101000a031916815260200191505b50935050505060405180910390f35b3480156103d157600080fd5b506103da610a31565b6040518082815260200191505060405180910390f35b3480156103fc57600080fd5b506104336004803603604081101561041357600080fd5b810190808035906020019092919080359060200190929190505050610a37565b005b34801561044157600080fd5b5061046e6004803603602081101561045857600080fd5b8101908080359060200190929190505050610ab2565b6040518085815260200184815260200183815260200182815260200194505050505060405180910390f35b3480156104a557600080fd5b506104ae610ae2565b6040518082815260200191505060405180910390f35b3480156104d057600080fd5b506104d9610ae8565b6040518082815260200191505060405180910390f35b3480156104fb57600080fd5b506105b56004803603602081101561051257600080fd5b810190808035906020019064010000000081111561052f57600080fd5b82018360208201111561054157600080fd5b8035906020019184600183028401116401000000008311171561056357600080fd5b91908080601f016020809104026020016040519081016040528093929190818152602001838380828437600081840152601f19601f820116905080830192505050505050509192919290505050610aee565b005b3480156105c357600080fd5b506105f0600480360360208110156105da57600080fd5b8101908080359060200190929190505050610b59565b6040518083815260200180602001828103825283818151815260200191508051906020019080838360005b8381101561063657808201518184015260208101905061061b565b50505050905090810190601f1680156106635780820380516001836020036101000a031916815260200191505b50935050505060405180910390f35b34801561067e57600080fd5b506106b56004803603604081101561069557600080fd5b810190808035906020019092919080359060200190929190505050610c15565b005b60036020528060005260406000206000915090508060000154908060010154908060020154908060030160009054906101000a900460ff16905084565b60046000815480929190600101919050555060408051908101604052806004548152602001828152506000806004548152602001908152602001600020600082015181600001556020820151816001019080519060200190610757929190610c3d565b5090505050565b60065481565b8060026000848152602001908152602001600020600301541015156107a8578060026000848152602001908152602001600020600301600082825403925050819055505b5050565b60076000815480929190600101919050555060806040519081016040528060075481526020018381526020018281526020016000151581525060036000600754815260200190815260200160002060008201518160000155602082015181600101556040820151816002015560608201518160030160006101000a81548160ff0219169083151502179055509050505050565b6003600083815260200190815260200160002060030160009054906101000a900460ff161580156108b25750600360008381526020019081526020016000206002015460026000600360008681526020019081526020016000206001015481526020019081526020016000206003015410155b156109715760036000838152602001908152602001600020600201546002600060036000868152602001908152602001600020600101548152602001908152602001600020600301600082825403925050819055506003600083815260200190815260200160002060020154600260008381526020019081526020016000206003016000828254019250508190555060016003600084815260200190815260200160002060030160006101000a81548160ff0219169083151502179055505b5050565b6000602052806000526040600020600091509050806000015490806001018054600181600116156101000203166002900480601f016020809104026020016040519081016040528092919081815260200182805460018160011615610100020316600290048015610a275780601f106109fc57610100808354040283529160200191610a27565b820191906000526020600020905b815481529060010190602001808311610a0a57829003601f168201915b5050505050905082565b60075481565b60066000815480929190600101919050555060806040519081016040528060065481526020018381526020018281526020016000815250600260006006548152602001908152602001600020600082015181600001556020820151816001015560408201518160020155606082015181600301559050505050565b60026020528060005260406000206000915090508060000154908060010154908060020154908060030154905084565b60055481565b60045481565b6005600081548092919060010191905055506040805190810160405280600554815260200182815250600160006005548152602001908152602001600020600082015181600001556020820151816001019080519060200190610b52929190610c3d565b5090505050565b6001602052806000526040600020600091509050806000015490806001018054600181600116156101000203166002900480601f016020809104026020016040519081016040528092919081815260200182805460018160011615610100020316600290048015610c0b5780601f10610be057610100808354040283529160200191610c0b565b820191906000526020600020905b815481529060010190602001808311610bee57829003601f168201915b5050505050905082565b8060026000848152602001908152602001600020600301600082825401925050819055505050565b828054600181600116156101000203166002900490600052602060002090601f016020900481019282601f10610c7e57805160ff1916838001178555610cac565b82800160010185558215610cac579182015b82811115610cab578251825591602001919060010190610c90565b5b509050610cb99190610cbd565b5090565b610cdf91905b80821115610cdb576000816000905550600101610cc3565b5090565b9056fea165627a7a723058205ec4ac91759a3b6a2e04187a6a0d27dcfcddba15b69b7ea0e40bce9fb96723de0029",
  "source": "pragma solidity >=0.4.21 <0.6.0;\n\ncontract Checking {\n\n\tstruct Persons {\n\t\tint id;\n\t\tstring name;\n\t}\n\n\tstruct Banks {\n\t\tint id;\n\t\tstring name;\n\t}\n\n\tstruct Accounts {\n\t\tint id;\n\t\tint bank_id;\n\t\tint owner_id;\n\t\tuint balance;\n\t}\n\n\tstruct Checks {\n\t\tint id;\n\t\tint account_id;\n\t\tuint amount;\n\t\tbool paid;\n\t}\n\n\tmapping (int => Persons) public persons;\n\tmapping (int => Banks) public banks;\n\tmapping (int => Accounts) public accounts;\n\tmapping (int => Checks) public checks;\n\n\tint public personsCount = 0;\n\tint public banksCount = 0;\n\tint public accountsCount = 0;\n\tint public checksCount = 0;\n\n\t// adders\n\n\tfunction addPerson (string memory _name) public {\n\t\tpersonsCount++;\n\t\tpersons[personsCount] = Persons( personsCount, _name);\n\t}\n\n\tfunction addBank (string memory _name) public {\n\t\tbanksCount++;\n\t\tbanks[banksCount] = Banks( banksCount, _name);\n\t}\n\n\tfunction addAccount (int _bank, int _owner) public {\n\t\taccountsCount++;\n\t\taccounts[accountsCount] = Accounts( accountsCount, _bank, _owner, 0);\n\t}\n\n\tfunction addCheck ( int _account, uint _amount) public {\n\t\tchecksCount++;\n\t\tchecks[checksCount] = Checks( checksCount, _account, _amount, false);\n\t}\n\n\t// modifiers\n\n\tfunction depositAccount ( int _account, uint _amount) public {\n\t\taccounts[ _account].balance += _amount;\n\t}\n\n\tfunction withdrawAccount ( int _account, uint _amount) public {\n\t\tif (accounts[ _account].balance >= _amount)\n\t\t\taccounts[ _account].balance -= _amount;\n\t}\n\t\n\tfunction payCheck ( int _check, int _account) public {\n\t\tif ( !checks[_check].paid && \n\t\t\t accounts[ checks[_check].account_id].balance >= checks[_check].amount ) \n\t\t{\n\t\t\taccounts[ checks[_check].account_id].balance -= checks[_check].amount;\n\t\t\taccounts[ _account].balance += checks[_check].amount;\n\t\t\tchecks[_check].paid = true;\n\t\t}\n\t}\n\n\tconstructor() public {\n\t\taddPerson(\"Alex\");\n\t\taddPerson(\"Fer\");\n\t\taddBank(\"Rio\");\n\t\taddBank(\"HSBC\");\n\t\taddAccount(1, 1);\n\t\tdepositAccount(1, 500);\n\t\taddAccount(2, 2);\n\t\taddCheck( 1, 200);\n\t\taddCheck( 2, 300);\n\t}\n}\n",
  "sourcePath": "/home/alex/Ethereum/checking/app/contracts/Checking.sol",
  "compiler": {
    "name": "solc",
    "version": "0.5.0+commit.1d4f565a.Emscripten.clang"
  },
  "schemaVersion": "3.0.2",
  "updatedAt": "2019-05-21T20:26:35.367Z",
  "devdoc": {
    "methods": {}
  },
  "userdoc": {
    "methods": {}
  }
}